:100000000C945F000C9471000C9471000C947100BE
:100010000C9471000C9471000C9471000C9471009C
:100020000C9471000C9473000C9471000C9471008A
:100030000C9471000C9471000C9471000C9471007C
:100040000C9471000C9471000C9471000C9471006C
:100050000C9471000C9471000C9471000C9471005C
:100060000C9471000C9471000C9471000C9471004C
:100070000C9471000C9471000C9471000C9471003C
:100080000C9471000C9471000C9471000C9471002C
:100090000C9471000C9471000C9471000C9471001C
:1000A00005A84CCDB2D44EB93836A9020C50B9913E
:1000B0008688083CA6AAAA2ABE000000803F112418
:1000C0001FBECFEFCDBFDFE3DEBF28E2A0E0B8E286
:1000D00001C01D92A438B207E1F70E943C010C94C4
:1000E00078030C9400001F920F920FB60F92112408
:1000F0002F938F939F93EF93FF938091002890917C
:10010000012801968F73907897FD34C08093002862
:1001100090930128880F991FFC01EC5FF74D208117
:100120002093022881818F708069809303289091A9
:1001300064049D7F909364048093C4088091C308F5
:1001400087FFFCCF2093C4088091C30887FFFCCFB2
:100150008091640482608093640480E180930B0A40
:10016000FF91EF919F918F912F910F900FBE0F9064
:100170001F9018950197806C9F6F0196C7CFCF9302
:10018000DF93C4E0D8E260E070E0CB0111C0BE01B3
:1001900064507842072E000C880B990B0E94EF01E7
:1001A0002BED3FE049E45DE30E947B020E94E80200
:1001B00023E333E343E75FE30E947B0220E030E088
:1001C00040E85FE30E94520120E030E040E054E468
:1001D0000E947B0220E030E040E850E40E947B0275
:1001E0000E94BE016993799388E2C438D80779F6F2
:1001F000DF91CF9108958DE080934104E0E6F4E033
:1002000082E081831182848182608483A0E0BAE0ED
:1002100081E111968C93119719968C9119978E7F85
:1002200019968C93199780E11A968C931A978FEFF1
:1002300090E098968D939C93999791E09C93A0EE73
:10024000B5E013968C911397816013968C93A0EC74
:10025000B8E08C9181638C938089887F808B8089C2
:100260008460808B8089877F808BE0E0F6E081E589
:1002700082831682908308950E94FB000E94BF0033
:10028000789421E02093080680910B0680FFFCCF34
:1002900080911006909111068093380A9093390A44
:1002A000F1CF5058BB27AA270E9469010C94410244
:1002B0000E94330238F00E943A0220F039F49F3F46
:1002C00019F426F40C9430020EF4E095E7FB0C943C
:1002D0002A02E92F0E94520258F3BA1762077307E5
:1002E0008407950720F079F4A6F50C9474020EF4B7
:1002F000E0950B2EBA2FA02D0B01B90190010C0136
:10030000CA01A0011124FF27591B99F0593F50F44D
:10031000503E68F11A16F040A22F232F342F4427A5
:10032000585FF3CF469537952795A795F04053959D
:10033000C9F77EF41F16BA0B620B730B840BBAF06D
:100340009150A1F0FF0FBB1F661F771F881FC2F7D8
:100350000EC0BA0F621F731F841F48F487957795EC
:100360006795B795F7959E3F08F0B0CF9395880FA6
:1003700008F09927EE0F9795879508950E945A02E5
:1003800088F09F5798F0B92F9927B751B0F0E1F056
:10039000660F771F881F991F1AF0BA95C9F714C006
:1003A000B13091F00E947402B1E008950C9474028F
:1003B000672F782F8827B85F39F0B93FCCF386953F
:1003C00077956795B395D9F73EF49095809570959C
:1003D00061957F4F8F4F9F4F0895E89409C097FB19
:1003E0003EF490958095709561957F4F8F4F9F4F0C
:1003F0009923A9F0F92F96E9BB279395F695879550
:1004000077956795B795F111F8CFFAF4BB0F11F412
:1004100060FF1BC06F5F7F4F8F4F9F4F16C08823B9
:1004200011F096E911C0772321F09EE8872F762FEF
:1004300005C0662371F096E8862F70E060E02AF030
:100440009A95660F771F881FDAF7880F969587951C
:1004500097F9089597F99F6780E870E060E0089544
:100460009FEF80EC089500240A94161617061806CC
:100470000906089500240A941216130614060506A8
:100480000895092E0394000C11F4882352F0BB0F39
:1004900040F4BF2B11F460FF04C06F5F7F4F8F4F9C
:1004A0009F4F089557FD9058440F551F59F05F3FD7
:1004B00071F04795880F97FB991F61F09F3F79F086
:1004C00087950895121613061406551FF2CF469508
:1004D000F1DF08C0161617061806991FF1CF86958A
:1004E0007105610508940895E894BB27662777276E
:1004F000CB0197F908950E948E020C9441020E944C
:10050000330238F00E943A0220F0952311F00C9447
:100510002A020C94300211240C9475020E9452029B
:1005200070F3959FC1F3950F50E0551F629FF00146
:10053000729FBB27F00DB11D639FAA27F00DB11D5F
:10054000AA1F649F6627B00DA11D661F829F2227E8
:10055000B00DA11D621F739FB00DA11D621F839F6F
:10056000A00D611D221F749F3327A00D611D231F45
:10057000849F600D211D822F762F6A2F11249F5793
:1005800050409AF0F1F088234AF0EE0FFF1FBB1F96
:10059000661F771F881F91505040A9F79E3F510555
:1005A00080F00C942A020C9475025F3FE4F3983EAD
:1005B000D4F3869577956795B795F795E7959F5FFF
:1005C000C1F7FE2B880F911D9695879597F9089591
:1005D0009F930E94F2020F9007FCEE5F0C941B03A6
:1005E0000C9430020E945A02D8F3E894E0E0BB2752
:1005F0009F57F0F02AED3FE049EC06C0EE0FBB0F2D
:10060000661F771F881F28F0B23A620773078407B6
:1006100028F0B25A620B730B840BE3959A9572F72C
:10062000803830F49A95BB0F661F771F881FD2F76A
:1006300090480C943103EF93E0FF07C0A2EA2AED43
:100640003FE049EC5FEB0E9469010E9441020F907C
:10065000039401FC9058E0EAF0E00C943D039F3FC6
:1006600031F0915020F4879577956795B795880F6D
:10067000911D9695879597F908959F938F937F93F2
:100680006F93FF93EF939B01AC010E947B02EF916C
:10069000FF910E9451032F913F914F915F910C94D4
:1006A0007B02DF93CF931F930F93FF92EF92DF9222
:1006B0007B018C01689406C0DA2EEF010E948E0245
:1006C000FE01E894A5912591359145915591A6F3A8
:1006D000EF010E946901FE019701A801DA9469F710
:1006E000DF90EF90FF900F911F91CF91DF910895D0
:0406F000F894FFCFAC
:00000001FF
